:020000040800F2
:1000000000500020310C0008C10B0008C70B00088D
:10001000CD0B0008D30B0008D90B0008000000002E
:10002000000000000000000000000000DF0B0008DE
:10003000EB0B000800000000F70B0008030C0008A1
:10004000790C0008790C0008790C0008790C00087C
:10005000790C0008790C0008790C0008790C00086C
:10006000790C0008790C0008790C0008790C00085C
:10007000790C0008790C0008790C0008790C00084C
:10008000790C0008790C0008790C0008790C00083C
:10009000790C0008790C0008790C0008790C00082C
:1000A000790C0008790C0008790C0008790C00081C
:1000B000790C0008790C0008790C0008790C00080C
:1000C000790C0008790C0008790C0008790C0008FC
:1000D000790C0008790C0008790C0008110C000854
:1000E000790C0008790C0008790C00080000000069
:1000F0000000000000000000000000000000000000
:0C01000000000000000000005FF808F1A3
:10010C0010B5054C237833B9044B13B10448AFF345
:10011C0000800123237010BD0C00002000000000A3
:10012C00D433000808B5034B1BB103490348AFF3A4
:10013C00008008BD0000000010000020D43300082F
:10014C0080B582B000AF78607B681A681D4B1B6865
:10015C009A4233D11C4B1B78002B0DD11A4B1B78B8
:10016C001A461A4B19781A4B9954174B1B780133B2
:10017C00DAB2154B1A701CE0134B1B781A46134B52
:10018C001978134B9954104B1B781A46104B9A5CE8
:10019C000D4B1B78013B0E49CB5C9A4206D10A4BA6
:1001AC001B780133DAB2084B1A7002E0064B0022BE
:1001BC001A7001220549786802F0CCFC00BF0837A0
:1001CC00BD4680BD00010020300500204401002008
:1001DC004801002080B500AFA04B1B78423B102B90
:1001EC0000F2248101A252F823F000BF870200081C
:1001FC003904000839040008390400083D020008DD
:10020C00BD030008FB030008410300087F0300083E
:10021C0039040008C5020008390400083904000834
:10022C0039040008390400083904000803030008E5
:10023C0000224FF400518A4801F0BEF8002204213C
:10024C00884801F0B9F801220821864801F0B4F879
:10025C0000221021834801F0AFF8012220218148AF
:10026C0001F0AAF8804B1B684FF47A725A637E4BEC
:10027C001B684FF47A729A63EDE0012204217948ED
:10028C0001F09AF800220821764801F095F8012235
:10029C001021744801F090F800222021714801F0DF
:1002AC008BF8714B1B684FF47A725A636E4B1B6858
:1002BC004FF47A729A63CEE000220421694801F06F
:1002CC007BF801220821674801F076F80022102102
:1002DC00644801F071F800222021624801F06CF8AA
:1002EC00614B1B684FF47A725A635F4B1B684FF477
:1002FC007A729A63AFE0002204215A4801F05CF84C
:10030C0000220821574801F057F8002210215548C7
:10031C0001F052F801222021524801F04DF8524BC5
:10032C001B684FF47A725A634F4B1B684FF47A7206
:10033C009A6390E0002204214A4801F03DF8012222
:10034C000821484801F038F800221021454801F0F6
:10035C0033F801222021434801F02EF8424B1B6850
:10036C004FF47A725A63404B1B684FF42F729A63A6
:10037C0071E0012204213B4801F01EF80022082103
:10038C00384801F019F801221021364801F014F810
:10039C0000222021334801F00FF8334B1B684FF437
:1003AC007A725A63304B1B684FF42F729A6352E087
:1003BC00002204212B4800F0FFFF012208212948CC
:1003CC0000F0FAFF00221021264800F0F5FF012270
:1003DC002021244800F0F0FF234B1B684FF42F72B0
:1003EC005A63214B1B684FF47A729A6333E00122F3
:1003FC0004211C4800F0E0FF00220821194800F0FD
:10040C00DBFF01221021174800F0D6FF002220212B
:10041C00144800F0D1FF144B1B684FF42F725A6331
:10042C00114B1B684FF47A729A6314E0002204217A
:10043C000C4800F0C1FF002208210A4800F0BCFF64
:10044C0000221021074800F0B7FF002220210548A8
:10045C0000F0B2FF00BF00BF80BD00BF480100200C
:10046C0000100140000801402800002080B500AFBA
:10047C0000F0FEFB00F02CF800F0EAF900F06AF94D
:10048C0000F068F800F012F900F0B8F901220B49FD
:10049C000B4802F05FFB00210A4801F067FC0421C5
:1004AC00084801F063FC0421074801F0A3FD042176
:1004BC00064801F09FFDFFF78DFEFCE7440100208C
:1004CC00000100202800002070000020B80000204F
:1004DC0080B590B000AF07F1180328220021184610
:1004EC0002F06AFF3B1D00221A605A609A60DA60C3
:1004FC001A610223BB610123BB621023FB6202233E
:10050C007B630023BB634FF44023FB6307F11803A9
:10051C00184600F069FF0346002B01D000F004FAE6
:10052C000F237B600223BB600023FB604FF48063CE
:10053C003B6100237B613B1D0021184601F0D6F97D
:10054C000346002B01D000F0EFF900BF4037BD4649
:10055C0080BD000080B596B000AF07F148030022C3
:10056C001A605A609A60DA6007F1400300221A6040
:10057C005A6007F1240300221A605A609A60DA600C
:10058C001A615A619A613B1D20220021184602F023
:10059C0013FF444B444A1A60424B00225A60414BB1
:1005AC0000229A603F4B40F2E732DA603D4B00226A
:1005BC001A613C4B00225A613A4B00229A6139482D
:1005CC0001F02CFB0346002B01D000F0ADF94FF4E9
:1005DC008053BB6407F148031946324801F056FEBC
:1005EC000346002B01D000F09FF92E4801F065FB6B
:1005FC000346002B01D000F097F900233B64002345
:10060C007B6407F140031946264802F0A7F903461C
:10061C00002B01D000F088F960237B620023BB62C1
:10062C000023FB6200233B6300237B630023BB633B
:10063C000023FB6307F1240300221946194801F03B
:10064C0067FD0346002B01D000F06EF907F124037F
:10065C0004221946134801F05BFD0346002B01D020
:10066C0000F062F900237B600023BB600023FB6079
:10067C0000233B6100237B614FF40053BB610023DB
:10068C003B623B1D1946074802F0C6F90346002B96
:10069C0001D000F049F9034800F004FA00BF5837C4
:1006AC00BD4680BD28000020002C014080B58CB0D8
:1006BC0000AF07F10C0324220021184602F07CFE47
:1006CC003B1D00221A605A60214B4FF080421A6089
:1006DC001F4B00225A601E4B00229A601C4B4FF697
:1006EC00FF72DA601A4B00221A61194B00229A61D0
:1006FC000323FB6000233B6101237B610023BB616F
:10070C000023FB6100233B6201237B620023BB625D
:10071C000023FB6207F10C0319460D4801F0C8FBDE
:10072C000346002B01D000F0FFF800237B60002370
:10073C00BB603B1D1946064802F010F90346002B1E
:10074C0001D000F0F1F800BF3037BD4680BD00BFCE
:10075C007000002080B58CB000AF07F10C03242290
:10076C000021184602F028FE3B1D00221A605A6038
:10077C00204B214A1A601F4B00225A601D4B00224D
:10078C009A601C4B4FF6FF72DA601A4B00221A610A
:10079C00184B00229A610323FB6000233B61012369
:1007AC007B610023BB610023FB6100233B620123BF
:1007BC007B620023BB620023FB6207F10C0319462A
:1007CC000C4801F075FB0346002B01D000F0ACF88F
:1007DC0000237B600023BB603B1D1946054802F0DB
:1007EC00BDF80346002B01D000F09EF800BF303757
:1007FC00BD4680BDB80000200004004080B500AFAD
:10080C00114B124A1A60104B4FF416525A600E4B91
:10081C0000229A600C4B0022DA600B4B00221A610A
:10082C00094B0C225A61084B00229A61064B00229C
:10083C00DA61054802F041F90346002B01D000F0C3
:10084C0073F800BF80BD00BF0001002000480040CD
:10085C0080B588B000AF07F1100300221A605A600F
:10086C009A60DA602D4B9B692C4A43F0100393611C
:10087C002A4B9B6903F01003FB60FB68274B9B69B9
:10088C00264A43F020039361244B9B6903F0200319
:10089C00BB60BB68214B9B69204A43F00403936106
:1008AC001E4B9B6903F004037B607B681B4B9B69AD
:1008BC001A4A43F008039361184B9B6903F0080331
:1008CC003B603B6801224FF40051154800F074FD69
:1008DC0000223C21134800F06FFD4FF400533B61A4
:1008EC0001237B610023BB610223FB6107F1100331
:1008FC0019460B4800F0DCFB3C233B6101237B6178
:10090C000023BB610223FB6107F110031946054864
:10091C0000F0CEFB00BF2037BD4680BD001002406A
:10092C00001001400008014080B400AF72B600BF57
:10093C00FEE7000080B485B000AF154B9B69144AEC
:10094C0043F001039361124B9B6903F00103BB60FD
:10095C00BB680F4BDB690E4A43F08053D3610C4BE1
:10096C00DB6903F080537B607B680A4B5B68FB6040
:10097C00FB6823F0E063FB60FB6843F00073FB60F3
:10098C00044AFB68536000BF1437BD4680BC7047F7
:10099C00001002400000014080B485B000AF7860C8
:1009AC007B681B68094A93420BD1094B9B69084A27
:1009BC0043F400639361064B9B6903F40063FB6093
:1009CC00FB6800BF1437BD4680BC7047002C01404B
:1009DC000010024080B58AB000AF786007F11803B0
:1009EC0000221A605A609A60DA607B681B68B3F167
:1009FC00804F24D1284BDB69274A43F00103D36194
:100A0C00254BDB6903F001037B617B69224B9B69FE
:100A1C00214A43F0040393611F4B9B6903F00403C9
:100A2C003B613B690323BB610023FB6100233B62F9
:100A3C0007F118031946194800F03AFB28E07B68C7
:100A4C001B68174A934223D1134BDB69124A43F0BC
:100A5C000203D361104BDB6903F00203FB60FB68FC
:100A6C000D4B9B690C4A43F0040393610A4B9B6941
:100A7C0003F00403BB60BB68C023BB610023FB61B4
:100A8C0000233B6207F118031946044800F010FBE1
:100A9C0000BF2837BD4680BD001002400008014051
:100AAC000004004080B588B000AF786007F11003F7
:100ABC0000221A605A609A60DA607B681B68104AE0
:100ACC00934218D10F4B9B690E4A43F00403936178
:100ADC000C4B9B6903F00403FB60FB684FF4407301
:100AEC003B6102237B610223FB6107F11003194672
:100AFC00054800F0DDFA00BF2037BD4680BD00BFC1
:100B0C00002C0140001002400008014080B588B064
:100B1C0000AF786007F1100300221A605A609A60E7
:100B2C00DA607B681B68204A934239D11F4BDB6922
:100B3C001E4A43F48023D3611C4BDB6903F48023EE
:100B4C00FB60FB68194B9B69184A43F008039361DF
:100B5C00164B9B6903F00803BB60BB684FF48063C2
:100B6C003B6102237B610323FB6107F110031946F0
:100B7C000F4800F09DFA4FF400633B6100237B614A
:100B8C000023BB6107F110031946094800F090FAE5
:100B9C0000220021272000F0A4F9272000F0BDF945
:100BAC0000BF2037BD4680BD004800400010024009
:100BBC00000C014080B400AFFEE780B400AFFEE74C
:100BCC0080B400AFFEE780B400AFFEE780B400AFA6
:100BDC00FEE780B400AF00BFBD4680BC704780B458
:100BEC0000AF00BFBD4680BC704780B400AF00BFF3
:100BFC00BD4680BC704780B500AF00F07FF800BFE9
:100C0C0080BD000080B500AF024801F0D3FF00BFEB
:100C1C0080BD00BF0001002080B400AF00BFBD4606
:100C2C0080BC70470C480D490D4A002302E0D45893
:100C3C00C4500433C4188C42F9D30A4A0A4C00231A
:100C4C0001E013600432A242FBD3FFF7E5FF02F090
:100C5C008FFBFFF70BFC7047000000200C000020FE
:100C6C001C3400080C00002038050020FEE70000B2
:100C7C0080B500AF084B1B68074A43F010031360A4
:100C8C00032000F023F90F2000F008F8FFF752FEC4
:100C9C000023184680BD00BF0020024080B582B002
:100CAC0000AF7860124B1A68124B1B7819464FF440
:100CBC007A73B3FBF1F3B2FBF3F3184600F03BF994
:100CCC000346002B01D001230EE07B680F2B0AD8C2
:100CDC00002279684FF0FF3000F003F9064A7B6878
:100CEC001360002300E0012318460837BD4680BD81
:100CFC0000000020080000200400002080B400AF99
:100D0C00054B1B781A46054B1B681344034A1360AA
:100D1C0000BFBD4680BC7047080000203405002091
:100D2C0080B400AF024B1B681846BD4680BC7047B0
:100D3C003405002080B485B000AF78607B6803F088
:100D4C000703FB600C4BDB68BB60BA684FF6FF0314
:100D5C001340BB60FB681A02BB68134343F0BF63CC
:100D6C0043F40033BB60044ABB68D36000BF143744
:100D7C00BD4680BC704700BF00ED00E080B400AF02
:100D8C00044BDB681B0A03F007031846BD4680BC06
:100D9C00704700BF00ED00E080B483B000AF0346A5
:100DAC00FB7197F90730002B0BDBFB7903F01F026B
:100DBC00064997F907305B09012000FA02F241F865
:100DCC00232000BF0C37BD4680BC704700E100E01B
:100DDC0080B483B000AF03463960FB7197F90730DC
:100DEC00002B0ADB3B68DAB20C4997F90730120189
:100DFC00D2B20B4483F800230AE03B68DAB208490C
:100E0C00FB7903F00F03043B1201D2B20B441A76A8
:100E1C0000BF0C37BD4680BC704700BF00E100E04E
:100E2C0000ED00E080B489B000AFF860B9607A6082
:100E3C00FB6803F00703FB61FB69C3F10703042B99
:100E4C0028BF0423BB61FB690433062B02D9FB6961
:100E5C00033B00E000237B614FF0FF32BB6902FAD9
:100E6C0003F3DA43BB681A407B699A404FF0FF31B9
:100E7C007B6901FA03F3D9437B680B401343184693
:100E8C002437BD4680BC704780B582B000AF786017
:100E9C007B68013BB3F1807F01D301230FE00A4A49
:100EAC007B68013B53600F214FF0FF30FFF790FF41
:100EBC00054B00229A60044B07221A600023184647
:100ECC000837BD4680BD00BF10E000E080B582B0A1
:100EDC0000AF78607868FFF72DFF00BF0837BD467C
:100EEC0080BD80B586B000AF0346B9607A60FB73F5
:100EFC0000237B61FFF742FF78617A68B9687869F3
:100F0C00FFF790FF024697F90F3011461846FFF78E
:100F1C005FFF00BF1837BD4680BD80B582B000AF03
:100F2C000346FB7197F907301846FFF735FF00BFF2
:100F3C000837BD4680BD80B582B000AF7860786858
:100F4C00FFF7A2FF034618460837BD4680BD80B4A4
:100F5C0085B000AF78600023FB737B6893F8213079
:100F6C00022B08D07B6804229A637B68002283F8EA
:100F7C002020012320E07B681B681A687B681B68B3
:100F8C0022F00E021A607B681B681A687B681B686B
:100F9C0022F001021A607B681A6C7B68DB6B012102
:100FAC0001FA02F25A607B68012283F821207B68E7
:100FBC00002283F82020FB7B18461437BD4680BCEA
:100FCC007047000080B584B000AF78600023FB73DD
:100FDC007B6893F82130022B05D07B6804229A633E
:100FEC000123FB7351E07B681B681A687B681B68E4
:100FFC0022F00E021A607B681B681A687B681B68FB
:10100C0022F001021A607B681B68224A934229D0A5
:10101C007B681B68204A934222D07B681B681F4A5E
:10102C0093421AD07B681B681D4A934212D07B688E
:10103C001B681C4A93420AD07B681B681A4A93426D
:10104C0002D14FF480130EE04FF080730BE04FF49D
:10105C00803308E04FF4805305E04FF4807302E0D6
:10106C00102300E00123114A53607B68012283F8AE
:10107C0021207B68002283F820207B685B6B002B8F
:10108C0003D07B685B6B78689847FB7B18461037FE
:10109C00BD4680BD080002401C00024030000240EA
:1010AC0044000240580002406C0002400000024024
:1010BC0080B48BB000AF7860396000237B62002372
:1010CC003B6269E101227B6A02FA03F3FB613B6834
:1010DC001B68FA691340BB61BA69FB699A4240F01C
:1010EC0058813B685B689A4A93425ED0984A934217
:1010FC0075D8984A934258D0964A93426FD8964ADC
:10110C00934252D0944A934269D8944A93424CD019
:10111C00924A934263D8924A934246D0904A934261
:10112C005DD8122B2AD8122B59D801A252F823F0D1
:10113C00B711000891110008A3110008E51100086F
:10114C00EB110008EB110008EB110008EB11000883
:10115C00EB110008EB110008EB110008EB11000873
:10116C00EB110008EB110008EB110008EB11000863
:10117C00EB11000899110008AD110008794A93424F
:10118C0013D02CE03B68DB683B6229E03B68DB68F2
:10119C0004333B6224E03B68DB6808333B621FE0AE
:1011AC003B68DB680C333B621AE03B689B68002BA6
:1011BC0002D104233B6213E03B689B68012B05D1F1
:1011CC0008233B627B68FA691A6109E008233B62D9
:1011DC007B68FA695A6103E000233B6200E000BFC0
:1011EC00BB69FF2B01D87B6801E07B6804337B6112
:1011FC00BB69FF2B02D87B6A9B0002E07B6A083B31
:10120C009B003B617B691A680F213B6901FA03F370
:10121C00DB431A40396A3B6901FA03F31A437B69D1
:10122C001A603B685B6803F08053002B00F0B180C0
:10123C004D4B9B694C4A43F0010393614A4B9B69AC
:10124C0003F00103BB60BB68484A7B6A9B0802330E
:10125C0052F82330FB607B6A03F003039B000F22E0
:10126C0002FA03F3DB43FA681340FB607B68404AE5
:10127C00934213D07B683F4A93420DD07B683E4A21
:10128C00934207D07B683D4A934201D1032306E089
:10129C00042304E0022302E0012300E000237A6A25
:1012AC0002F0030292009340FA681343FB602F494B
:1012BC007B6A9B080233FA6841F823203B685B6821
:1012CC0003F48033002B06D02D4B1A682C49BB69D4
:1012DC0013430B6006E02A4B1A68BB69DB432849B1
:1012EC0013400B603B685B6803F40033002B06D0A3
:1012FC00234B5A682249BB6913434B6006E0204BD1
:10130C005A68BB69DB431E4913404B603B685B6802
:10131C0003F48013002B06D0194B9A681849BB694B
:10132C0013438B6006E0164B9A68BB69DB43144988
:10133C0013408B603B685B6803F40013002B21D0D7
:10134C000F4BDA680E49BB691343CB6021E000BF39
:10135C00000032100000311000002210000021109B
:10136C00000012100000111000100240000001409B
:10137C0000080140000C0140001001400014014025
:10138C00000401400B4BDA68BB69DB43094913408D
:10139C00CB607B6A01337B623B681A687B6A22FAFA
:1013AC0003F3002B7FF48EAE00BF00BF2C37BD467D
:1013BC0080BC70470004014080B483B000AF7860FB
:1013CC000B467B8013467B707B78002B03D07A888E
:1013DC007B681A6103E07B881A047B681A6100BF82
:1013EC000C37BD4680BC704780B586B000AF7860C6
:1013FC007B68002B01D1012372E27B681B6803F030
:10140C000103002B00F08780924B5B6803F00C0308
:10141C00042B0CD08F4B5B6803F00C03082B12D100
:10142C008C4B5B6803F48033B3F5803F0BD1894B55
:10143C001B6803F40033002B6CD07B685B68002BBB
:10144C0068D101234CE27B685B68B3F5803F06D121
:10145C00804B1B687F4A43F4803313602EE07B681B
:10146C005B68002B0CD17B4B1B687A4A23F48033CE
:10147C001360784B1B68774A23F4802313601DE0BC
:10148C007B685B68B3F5A02F0CD1724B1B68714A5B
:10149C0043F4802313606F4B1B686E4A43F4803314
:1014AC0013600BE06B4B1B686A4A23F480331360A8
:1014BC00684B1B68674A23F4802313607B685B6866
:1014CC00002B13D0FFF72CFC386108E0FFF728FC49
:1014DC0002463B69D31A642B01D9032300E25D4B0E
:1014EC001B6803F40033002BF0D014E0FFF718FC5A
:1014FC00386108E0FFF714FC02463B69D31A642BF1
:10150C0001D90323ECE1534B1B6803F40033002B8C
:10151C00F0D100E000BF7B681B6803F00203002BD6
:10152C0063D04C4B5B6803F00C03002B0BD0494B86
:10153C005B6803F00C03082B1CD1464B5B6803F46F
:10154C008033002B16D1434B1B6803F00203002B96
:10155C0005D07B681B69012B01D00123C0E13D4BF9
:10156C001B6823F0F8027B685B69DB003949134385
:10157C000B603AE07B681B69002B20D0364B0122B4
:10158C001A60FFF7CDFB386108E0FFF7C9FB024694
:10159C003B69D31A022B01D90323A1E12D4B1B6804
:1015AC0003F00203002BF0D02A4B1B6823F0F80247
:1015BC007B685B69DB00274913430B6015E0264B06
:1015CC0000221A60FFF7ACFB386108E0FFF7A8FBBC
:1015DC0002463B69D31A022B01D9032380E11D4B30
:1015EC001B6803F00203002BF0D17B681B6803F02F
:1015FC000803002B3AD07B689B69002B19D0174B42
:10160C0001221A60FFF78CFB386108E0FFF788FBBA
:10161C0002463B69D31A022B01D9032360E10D4B1F
:10162C005B6A03F00203002BF0D0012000F0D8FA23
:10163C001CE00A4B00221A60FFF772FB38610FE0C6
:10164C00FFF76EFB02463B69D31A022B08D9032322
:10165C0046E100BF001002400000424280044242BA
:10166C00924B5B6A03F00203002BE9D17B681B6889
:10167C0003F00403002B00F0A6800023FB758B4BBA
:10168C00DB6903F08053002B0DD1884BDB69874A53
:10169C0043F08053D361854BDB6903F08053BB600F
:1016AC00BB680123FB75824B1B6803F48073002B12
:1016BC0018D17F4B1B687E4A43F480731360FFF78D
:1016CC002FFB386108E0FFF72BFB02463B69D31A6E
:1016DC00642B01D9032303E1754B1B6803F480735E
:1016EC00002BF0D07B68DB68012B06D16F4B1B6A9B
:1016FC006E4A43F0010313622DE07B68DB68002B1C
:10170C000CD16A4B1B6A694A23F001031362674BC5
:10171C001B6A664A23F0040313621CE07B68DB68D7
:10172C00052B0CD1614B1B6A604A43F00403136216
:10173C005E4B1B6A5D4A43F0010313620BE05B4B8B
:10174C001B6A5A4A23F001031362584B1B6A574A0F
:10175C0023F0040313627B68DB68002B15D0FFF7C2
:10176C00DFFA38610AE0FFF7DBFA02463B69D31A6D
:10177C0041F28832934201D90323B1E04B4B1B6AEF
:10178C0003F00203002BEED014E0FFF7C9FA386126
:10179C000AE0FFF7C5FA02463B69D31A41F28832D8
:1017AC00934201D903239BE0404B1B6A03F00203D5
:1017BC00002BEED1FB7D012B05D13C4BDB693B4A69
:1017CC0023F08053D3617B68DB69002B00F08780AA
:1017DC00364B5B6803F00C03082B61D07B68DB692C
:1017EC00022B46D1334B00221A60FFF799FA38616D
:1017FC0008E0FFF795FA02463B69D31A022B01D990
:10180C0003236DE0294B1B6803F00073002BF0D110
:10181C007B681B6AB3F5803F08D1244B5B6823F4CB
:10182C0000327B689B68214913434B601F4B5B68FC
:10183C0023F474127B68196A7B685B6A0B431B493F
:10184C0013434B601B4B01221A60FFF769FA386196
:10185C0008E0FFF765FA02463B69D31A022B01D95F
:10186C0003233DE0114B1B6803F00073002BF0D0F9
:10187C0035E0104B00221A60FFF752FA386108E08D
:10188C00FFF74EFA02463B69D31A022B01D9032308
:10189C0026E0064B1B6803F00073002BF0D11EE012
:1018AC007B68DB69012B07D1012319E00010024092
:1018BC0000700040600042420B4B5B68FB60FB68B1
:1018CC0003F480327B681B6A9A4206D1FB6803F4EE
:1018DC0070127B685B6A9A4201D0012300E00023FE
:1018EC0018461837BD4680BD0010024080B584B044
:1018FC0000AF786039607B68002B01D10123D0E008
:10190C006A4B1B6803F007033A689A4210D9674B7D
:10191C001B6823F0070265493B6813430B60634B5C
:10192C001B6803F007033A689A4201D00123B8E020
:10193C007B681B6803F00203002B20D07B681B68BC
:10194C0003F00403002B05D0594B5B68584A43F451
:10195C00E06353607B681B6803F00803002B05D021
:10196C00534B5B68524A43F460535360504B5B6873
:10197C0023F0F0027B689B684D4913434B607B68F6
:10198C001B6803F00103002B40D07B685B68012BC4
:10199C0007D1474B1B6803F40033002B15D10123EF
:1019AC007FE07B685B68022B07D1414B1B6803F01F
:1019BC000073002B09D1012373E03D4B1B6803F02E
:1019CC000203002B01D101236BE0394B5B6823F040
:1019DC0003027B685B68364913434B60FFF7A0F941
:1019EC00F8600AE0FFF79CF90246FB68D31A41F253
:1019FC008832934201D9032353E02D4B5B6803F0EB
:101A0C000C027B685B689B009A42EBD1274B1B68EE
:101A1C0003F007033A689A4210D2244B1B6823F058
:101A2C00070222493B6813430B60204B1B6803F0F1
:101A3C0007033A689A4201D0012332E07B681B68A5
:101A4C0003F00403002B08D0194B5B6823F4E0620D
:101A5C007B68DB68164913434B607B681B6803F09B
:101A6C000803002B09D0124B5B6823F460527B688F
:101A7C001B69DB000E4913434B6000F021F8024652
:101A8C000B4B5B681B0903F00F030A49CB5C22FA72
:101A9C0003F3094A1360094B1B681846FFF7FEF85D
:101AAC00002318461037BD4680BD00BF0020024001
:101ABC0000100240FC33000800000020040000204D
:101ACC0090B48AB000AF294B3C1D0FCB84E80F00BB
:101ADC0040F201233B800023FB610023BB61002308
:101AEC007B6200237B6100233B62214B5B68FB61C3
:101AFC00FB6903F00C03042B02D0082B03D02BE062
:101B0C001C4B3B622BE0FB699B0C03F00F0328334F
:101B1C003B4413F8243C7B61FB6903F48033002BBA
:101B2C0012D0134B5B685B0C03F0010328333B446E
:101B3C0013F8283CBB617B690E4A03FB02F2BB69BC
:101B4C00B2FBF3F37B6204E07B690B4A02FB03F309
:101B5C007B627B6A3B6202E0064B3B6200BF3B6AE6
:101B6C0018462837BD4690BC704700BFEC330008C0
:101B7C000010024000127A0000093D0080B400AF52
:101B8C00024B1B681846BD4680BC70470000002005
:101B9C0080B500AFFFF7F2FF0246054B5B681B0AEE
:101BAC0003F007030349CB5C22FA03F3184680BD0C
:101BBC00001002400C34000880B500AFFFF7DEFFC8
:101BCC000246054B5B68DB0A03F007030349CB5C59
:101BDC0022FA03F3184680BD001002400C340008B2
:101BEC0080B485B000AF78600A4B1B680A4AA2FB30
:101BFC0003235B0A7A6802FB03F3FB6000BFFB68FC
:101C0C005A1EFA60002BF9D100BF00BF1437BD4635
:101C1C0080BC704700000020D34D621080B582B0AC
:101C2C0000AF78607B68002B01D1012341E07B6819
:101C3C0093F83D30DBB2002B06D17B68002283F891
:101C4C003C207868FEF7A8FE7B68022283F83D20D2
:101C5C007B681A687B6804331946104600F0DAFB7F
:101C6C007B68012283F846207B68012283F83E20A2
:101C7C007B68012283F83F207B68012283F8402097
:101C8C007B68012283F841207B68012283F8422083
:101C9C007B68012283F843207B68012283F844206F
:101CAC007B68012283F845207B68012283F83D2064
:101CBC00002318460837BD4680BD80B582B000AF02
:101CCC0078607B68002B01D1012341E07B6893F89D
:101CDC003D30DBB2002B06D17B68002283F83C2020
:101CEC00786800F039F87B68022283F83D207B6825
:101CFC001A687B6804331946104600F08BFB7B682E
:101D0C00012283F846207B68012283F83E207B6801
:101D1C00012283F83F207B68012283F840207B68F6
:101D2C00012283F841207B68012283F842207B68E2
:101D3C00012283F843207B68012283F844207B68CE
:101D4C00012283F845207B68012283F83D20002383
:101D5C0018460837BD4680BD80B483B000AF7860AC
:101D6C0000BF0C37BD4680BC7047000080B584B006
:101D7C0000AF786039603B68002B09D17B6893F821
:101D8C003E30DBB2012B14BF01230023DBB222E077
:101D9C003B68042B09D17B6893F83F30DBB2012BF5
:101DAC0014BF01230023DBB215E03B68082B09D1DB
:101DBC007B6893F84030DBB2012B14BF0123002366
:101DCC00DBB208E07B6893F84130DBB2012B14BF27
:101DDC0001230023DBB2002B01D001235EE03B6822
:101DEC00002B04D17B68022283F83E2013E03B6871
:101DFC00042B04D17B68022283F83F200BE03B6864
:101E0C00082B04D17B68022283F8402003E07B6816
:101E1C00022283F841207B681B680122396818462E
:101E2C0000F078FD7B681B681E4A934207D17B68E3
:101E3C001B685A6C7B681B6842F400425A647B68CE
:101E4C001B68184A93420ED07B681B68B3F1804F15
:101E5C0009D07B681B68144A934204D07B681B68CA
:101E6C00124A934211D17B681B689B6803F00703ED
:101E7C00FB60FB68062B10D07B681B681A687B68BC
:101E8C001B6842F001021A6007E07B681B681A6845
:101E9C007B681B6842F001021A6000231846103759
:101EAC00BD4680BD002C01400004004000080040ED
:101EBC0080B586B000AF786039607B68002B01D1AB
:101ECC00012393E07B6893F83D30DBB2002B06D105
:101EDC007B68002283F83C207868FEF77BFD7B68EA
:101EEC00022283F83D207B681B689B687A68126825
:101EFC0023F4804323F0070393607B681A687B68A4
:101F0C0004331946104600F085FA7B681B689B6801
:101F1C007B617B681B689B693B617B681B681B6AE8
:101F2C00FB603B681B687A6913437B613B6923F454
:101F3C00407323F003033B613B689A683B689B69E1
:101F4C001B0213433A6913433B613B6923F440631F
:101F5C0023F00C033B613B6923F4704323F0F00343
:101F6C003B613B68DA683B68DB691B0213433A69E7
:101F7C0013433B613B681B691A013B681B6A1B03DB
:101F8C0013433A6913433B61FB6823F02203FB6064
:101F9C003B685A683B685B691B011343FA6813433F
:101FAC00FB607B681B687A699A607B681B683A697E
:101FBC009A617B681B68FA681A627B68012283F855
:101FCC0046207B68012283F83E207B68012283F83F
:101FDC003F207B68012283F842207B68012283F832
:101FEC0043207B68012283F83D20002318461837D4
:101FFC00BD4680BD80B584B000AF786039607B6829
:10200C0093F83E30FB737B6893F83F30BB737B686F
:10201C0093F842307B737B6893F843303B733B6897
:10202C00002B10D1FB7B012B02D17B7B012B01D030
:10203C00012369E07B68022283F83E207B68022240
:10204C0083F8422031E03B68042B10D1BB7B012B81
:10205C0002D13B7B012B01D0012355E07B6802228E
:10206C0083F83F207B68022283F843201DE0FB7B32
:10207C00012B08D1BB7B012B05D17B7B012B02D122
:10208C003B7B012B01D001233EE07B68022283F8CD
:10209C003E207B68022283F83F207B68022283F873
:1020AC0042207B68022283F843203B68002B03D03C
:1020BC003B68042B08D00FE07B681B6801220021D1
:1020CC00184600F027FC16E07B681B6801220421EF
:1020DC00184600F01FFC0EE07B681B6801220021F3
:1020EC00184600F017FC7B681B6801220421184677
:1020FC0000F010FC00BF7B681B681A687B681B68CB
:10210C0042F001021A60002318461037BD4680BD0C
:10211C0080B584B000AFF860B9607A60FB6893F862
:10212C003C30012B01D10223ACE0FB68012283F887
:10213C003C207B680C2B00F29F8001A252F823F00C
:10214C0081210008852200088522000885220008CC
:10215C00C12100088522000885220008852200087C
:10216C000322000885220008852200088522000829
:10217C0043220008FB681B68B968184600F0ACF9EC
:10218C00FB681B689A69FB681B6842F008029A613D
:10219C00FB681B689A69FB681B6822F004029A6151
:1021AC00FB681B689969BB681A69FB681B680A4362
:1021BC009A6162E0FB681B68B968184600F0F2F996
:1021CC00FB681B689A69FB681B6842F400629A61A1
:1021DC00FB681B689A69FB681B6822F480629A6131
:1021EC00FB681B689969BB681B691A02FB681B6852
:1021FC000A439A6141E0FB681B68B968184600F015
:10220C003BFAFB681B68DA69FB681B6842F0080242
:10221C00DA61FB681B68DA69FB681B6822F0040250
:10222C00DA61FB681B68D969BB681A69FB681B68B3
:10223C000A43DA6121E0FB681B68B968184600F0B4
:10224C0085FAFB681B68DA69FB681B6842F400625C
:10225C00DA61FB681B68DA69FB681B6822F4806230
:10226C00DA61FB681B68D969BB681B691A02FB68D9
:10227C001B680A43DA6100E000BFFB68002283F8A8
:10228C003C20002318461037BD4680BD80B584B075
:10229C0000AF786039607B6893F83C30012B01D13A
:1022AC000223B3E07B68012283F83C207B68022286
:1022BC0083F83D207B681B689B68FB60FB6823F000
:1022CC007703FB60FB6823F47F43FB607B681B6830
:1022DC00FA689A603B681B68B3F5005F3ED0B3F5B3
:1022EC00005F00F28780B3F5805F00F08580B3F566
:1022FC00805F7FD8702B1AD0702B7BD8602B50D07E
:10230C00602B77D8502B3CD0502B73D8402B58D007
:10231C00402B6FD8302B64D0302B6BD8202B60D057
:10232C00202B67D8002B5CD0102B5AD062E07B6836
:10233C0018683B6899683B685A683B68DB6800F032
:10234C00CAFA7B681B689B68FB60FB6843F07703E9
:10235C00FB607B681B68FA689A604EE07B681868C3
:10236C003B6899683B685A683B68DB6800F0B3FAD5
:10237C007B681B689A687B681B6842F480429A6091
:10238C003BE07B6818683B6859683B68DB681A4619
:10239C0000F02AFA7B681B685021184600F081FA7D
:1023AC002BE07B6818683B6859683B68DB681A4609
:1023BC0000F048FA7B681B686021184600F071FA3F
:1023CC001BE07B6818683B6859683B68DB681A46F9
:1023DC0000F00AFA7B681B684021184600F061FA8D
:1023EC000BE07B681A683B681B681946104600F0C6
:1023FC0058FA02E000BF00E000BF7B68012283F8BE
:10240C003D207B68002283F83C20002318461037BF
:10241C00BD4680BD80B485B000AF786039607B6804
:10242C001B68FB607B68294A93420BD07B68B3F135
:10243C00804F07D07B68264A934203D07B68254A9D
:10244C00934208D1FB6823F07003FB603B685B6828
:10245C00FA681343FB607B681C4A93420BD07B6881
:10246C00B3F1804F07D07B68194A934203D07B6845
:10247C00184A934208D1FB6823F44073FB603B6815
:10248C00DB68FA681343FB60FB6823F080023B684F
:10249C005B691343FB607B68FA681A603B689A6857
:1024AC007B68DA623B681A687B689A627B68074AC9
:1024BC00934203D13B681A697B681A637B680122DB
:1024CC005A6100BF1437BD4680BC7047002C0140D8
:1024DC00000400400008004080B487B000AF786072
:1024EC0039607B681B6A23F001027B681A627B6887
:1024FC001B6A7B617B685B683B617B689B69FB60EB
:10250C00FB6823F07003FB60FB6823F00303FB60A4
:10251C003B681B68FA681343FB607B6923F002037A
:10252C007B613B689B687A6913437B617B681C4ABF
:10253C0093420CD17B6923F008037B613B68DB6819
:10254C007A6913437B617B6923F004037B617B68AD
:10255C00134A934211D13B6923F480733B613B696D
:10256C0023F400733B613B685B693A6913433B613D
:10257C003B689B693A6913433B617B683A695A60D3
:10258C007B68FA689A613B685A687B685A637B6817
:10259C007A691A6200BF1C37BD4680BC704700BF09
:1025AC00002C014080B487B000AF786039607B6844
:1025BC001B6A23F010027B681A627B681B6A7B61C2
:1025CC007B685B683B617B689B69FB60FB6823F401
:1025DC00E043FB60FB6823F44073FB603B681B68C3
:1025EC001B02FA681343FB607B6923F020037B61B9
:1025FC003B689B681B017A6913437B617B681D4AAE
:10260C0093420DD17B6923F080037B613B68DB68CF
:10261C001B017A6913437B617B6923F040037B6167
:10262C007B68144A934213D13B6923F480633B616A
:10263C003B6923F400633B613B685B699B003A692F
:10264C0013433B613B689B699B003A6913433B61B5
:10265C007B683A695A607B68FA689A613B685A6889
:10266C007B689A637B687A691A6200BF1C37BD4627
:10267C0080BC7047002C014080B487B000AF7860FC
:10268C0039607B681B6A23F480727B681A627B68F2
:10269C001B6A7B617B685B683B617B68DB69FB6009
:1026AC00FB6823F07003FB60FB6823F00303FB6003
:1026BC003B681B68FA681343FB607B6923F4007367
:1026CC007B613B689B681B027A6913437B617B6867
:1026DC001D4A93420DD17B6923F400637B613B68F7
:1026EC00DB681B027A6913437B617B6923F480638B
:1026FC007B617B68144A934213D13B6923F480536A
:10270C003B613B6923F400533B613B685B691B01F4
:10271C003A6913433B613B689B691B013A6913435C
:10272C003B617B683A695A607B68FA68DA613B689E
:10273C005A687B68DA637B687A691A6200BF1C3757
:10274C00BD4680BC704700BF002C014080B487B0F0
:10275C0000AF786039607B681B6A23F480527B6819
:10276C001A627B681B6A3B617B685B687B617B6878
:10277C00DB69FB60FB6823F4E043FB60FB6823F43C
:10278C004073FB603B681B681B02FA681343FB60D9
:10279C003B6923F400533B613B689B681B033A691C
:1027AC0013433B617B680F4A934209D17B6923F445
:1027BC0080437B613B685B699B017A6913437B6156
:1027CC007B687A695A607B68FA68DA613B685A6898
:1027DC007B681A647B683A691A6200BF1C37BD4675
:1027EC0080BC7047002C014080B487B000AFF8600B
:1027FC00B9607A60FB681B6A7B61FB681B6A23F01B
:10280C000102FB681A62FB689B693B613B6923F020
:10281C00F0033B617B681B013A6913433B617B69A5
:10282C0023F00A037B617A69BB6813437B61FB6805
:10283C003A699A61FB687A691A6200BF1C37BD4617
:10284C0080BC704780B487B000AFF860B9607A6024
:10285C00FB681B6A23F01002FB681A62FB689B6919
:10286C007B61FB681B6A3B617B6923F470437B6172
:10287C007B681B037A6913437B613B6923F0A003DC
:10288C003B61BB681B013A6913433B61FB687A6986
:10289C009A61FB683A691A6200BF1C37BD4680BC5E
:1028AC00704780B485B000AF786039607B689B68F6
:1028BC00FB60FB6823F07003FB603A68FB68134312
:1028CC0043F00703FB607B68FA689A6000BF14371B
:1028DC00BD4680BC704780B487B000AFF860B9606B
:1028EC007A603B60FB689B687B617B6923F47F4368
:1028FC007B613B681A027B681A43BB6813437A6995
:10290C0013437B61FB687A699A6000BF1C37BD4634
:10291C0080BC704780B487B000AFF860B9607A6053
:10292C00BB6803F01F03012202FA03F37B61FB680F
:10293C001A6A7B69DB431A40FB681A62FB681A6AE5
:10294C00BB6803F01F03796801FA03F31A43FB68B1
:10295C001A6200BF1C37BD4680BC704780B485B07E
:10296C0000AF786039607B6893F83C30012B01D163
:10297C00022346E07B68012283F83C207B6802221C
:10298C0083F83D207B681B685B68FB607B681B6879
:10299C009B68BB60FB6823F07003FB603B681B68A3
:1029AC00FA681343FB607B681B68FA685A607B68A3
:1029BC001B68164A93420ED07B681B68B3F1804F9C
:1029CC0009D07B681B68124A934204D07B681B6851
:1029DC00104A93420CD1BB6823F08003BB603B6868
:1029EC005B68BA681343BB607B681B68BA689A6003
:1029FC007B68012283F83D207B68002283F83C2011
:102A0C00002318461437BD4680BC7047002C01408B
:102A1C00000400400008004080B485B000AF78602E
:102A2C0039600023FB607B6893F83C30012B01D1AB
:102A3C0002233DE07B68012283F83C20FB6823F0F5
:102A4C00FF023B68DB681343FB60FB6823F44072B6
:102A5C003B689B681343FB60FB6823F480623B6814
:102A6C005B681343FB60FB6823F400623B681B68E4
:102A7C001343FB60FB6823F480523B681B691343D0
:102A8C00FB60FB6823F400523B685B691343FB60FB
:102A9C00FB6823F480423B68DB691343FB607B6873
:102AAC001B68FA685A647B68002283F83C20002378
:102ABC0018461437BD4680BC704780B582B000AF55
:102ACC0078607B68002B01D101233FE07B6893F891
:102ADC003D30DBB2002B06D17B68002283F83C2012
:102AEC007868FEF713F87B68242283F83D207B6816
:102AFC001B68DA687B681B6822F40052DA6078681D
:102B0C0000F0A8FB7B681B681A697B681B6822F4C1
:102B1C0090421A617B681B685A697B681B6822F0BB
:102B2C002A025A617B681B68DA687B681B6842F46E
:102B3C000052DA607B6800221A647B68202283F8DA
:102B4C003D207B68202283F83E200023184608375E
:102B5C00BD4680BD80B584B000AFF860B960134647
:102B6C00FB80FB6893F83E30DBB2202B1DD1BB6899
:102B7C00002B02D0FB88002B01D1012316E0FB684F
:102B8C0093F83C30012B01D102230FE0FB680122AA
:102B9C0083F83C20FB6800221A63FB881A46B9684C
:102BAC00F86800F0CEF9034600E00223184610370F
:102BBC00BD4680BD80B58AB000AF78607B681B686D
:102BCC001B687B627B681B68DB683B627B681B68ED
:102BDC005B69FB610023BB6100237B617B6A03F0B3
:102BEC000F03BB61BB69002B0DD17B6A03F0200383
:102BFC00002B08D03B6A03F02003002B03D078682D
:102C0C0000F07FFA7BE1BB69002B00F0B180FB691F
:102C1C0003F00103002B05D13B6A03F49073002BE6
:102C2C0000F0A6807B6A03F00103002B0AD03B6AFC
:102C3C0003F48073002B05D07B681B6C43F00102FE
:102C4C007B681A647B6A03F00403002B0AD0FB69CF
:102C5C0003F00103002B05D07B681B6C43F00202D0
:102C6C007B681A647B6A03F00203002B0AD0FB69B1
:102C7C0003F00103002B05D07B681B6C43F00402AE
:102C8C007B681A647B6A03F00803002B0FD03B6A45
:102C9C0003F02003002B04D1FB6903F00103002B8C
:102CAC0005D07B681B6C43F008027B681A647B6858
:102CBC001B6C002B00F01E817B6A03F02003002BA1
:102CCC0007D03B6A03F02003002B02D0786800F099
:102CDC0018FA7B681B685B6903F04003002B14BF78
:102CEC0001230023DBB27B617B681B6C03F00803C0
:102CFC00002B02D17B69002B31D0786800F05AF997
:102D0C007B681B685B6903F04003002B23D07B6856
:102D1C001B685A697B681B6822F040025A617B6809
:102D2C009B6B002B13D07B689B6B764A5A637B683A
:102D3C009B6B1846FEF746F90346002B16D07B68B2
:102D4C009B6B5B6B7A68926B104698470EE07868C9
:102D5C0000F0E3F80AE0786800F0DFF806E0786845
:102D6C0000F0DBF87B6800221A64C3E000BFC1E00E
:102D7C007B681B6B012B40F0A1807B6A03F0100376
:102D8C00002B00F09B803B6A03F01003002B00F03B
:102D9C0095800023FB607B681B681B68FB607B686D
:102DAC001B685B68FB60FB687B681B685B6903F0F6
:102DBC004003002B4ED07B689B6B1B685B683B828F
:102DCC003B8A002B00F098807B689B8D3A8A9A4254
:102DDC0080F092807B683A8ADA857B689B6B9B6972
:102DEC00202B2BD07B681B68DA687B681B6822F46D
:102DFC008072DA607B681B685A697B681B6822F0FA
:102E0C0001025A617B681B685A697B681B6822F057
:102E1C0040025A617B68202283F83E207B680022A6
:102E2C001A637B681B68DA687B681B6822F01002E7
:102E3C00DA607B689B6B1846FEF789F87B689A8D85
:102E4C007B68DB8D9BB2D31A9BB21946786800F075
:102E5C006DF851E07B689A8D7B68DB8D9BB2D31A41
:102E6C007B827B68DB8D9BB2002B47D07B8A002B4F
:102E7C0044D07B681B68DA687B681B6822F490720C
:102E8C00DA607B681B685A697B681B6822F0010258
:102E9C005A617B68202283F83E207B6800221A63EB
:102EAC007B681B68DA687B681B6822F01002DA60AA
:102EBC007B8A1946786800F039F81FE07B6A03F0CA
:102ECC008003002B08D03B6A03F08003002B03D057
:102EDC00786800F0AFF812E07B6A03F04003002B37
:102EEC000DD03B6A03F04003002B08D0786800F04B
:102EFC00F0F804E000BF02E000BF00E000BF28379C
:102F0C00BD4680BD1930000880B483B000AF786036
:102F1C0000BF0C37BD4680BC704780B483B000AF97
:102F2C00786000BF0C37BD4680BC704780B483B05E
:102F3C0000AF78600B467B8000BF0C37BD4680BC71
:102F4C00704780B485B000AFF860B9601346FB8061
:102F5C00FB68BA689A62FB68FA889A85FB68FA88FB
:102F6C00DA85FB6800221A64FB68222283F83E2073
:102F7C00FB68002283F83C20FB681B68DA68FB685E
:102F8C001B6842F48072DA60FB681B685A69FB6844
:102F9C001B6842F001025A61FB681B68DA68FB6827
:102FAC001B6842F02002DA60002318461437BD4635
:102FBC0080BC704780B483B000AF78607B681B68BE
:102FCC00DA687B681B6822F49072DA607B681B6895
:102FDC005A697B681B6822F001025A617B681B6B83
:102FEC00012B07D17B681B68DA687B681B6822F0B1
:102FFC001002DA607B68202283F83E207B68002276
:10300C001A6300BF0C37BD4680BC704780B584B0D6
:10301C0000AF78607B685B6AFB60FB680022DA8536
:10302C00FB680022DA84F868FFF777FF00BF1037DF
:10303C00BD4680BD80B485B000AF78607B6893F8E6
:10304C003D30DBB2212B3ED17B689B68B3F5805FB2
:10305C0014D17B681B69002B10D17B681B6AFB6049
:10306C00FB681B881A467B681B68C2F308025A600F
:10307C007B681B6A9A1C7B681A6208E07B681B6A77
:10308C00591C7A6811621A787B681B685A607B68D5
:10309C00DB8C9BB2013B9BB27A681946D184002B26
:1030AC000FD17B681B68DA687B681B6822F0800292
:1030BC00DA607B681B68DA687B681B6842F0400248
:1030CC00DA60002300E0022318461437BD4680BCAA
:1030DC00704780B582B000AF78607B681B68DA6897
:1030EC007B681B6822F04002DA607B68202283F840
:1030FC003D207868FFF708FF002318460837BD46C7
:10310C0080BD80B586B000AF78607B6893F83E30A8
:10311C00DBB2222B40F099807B689B68B3F5805F13
:10312C0017D17B681B69002B13D100237B617B6853
:10313C009B6A3B617B681B685B689BB2C3F30803AB
:10314C009AB23B691A807B689B6A9A1C7B689A626C
:10315C0026E07B689B6A7B6100233B617B689B68F4
:10316C00B3F5805F07D07B689B68002B0AD17B6826
:10317C001B69002B06D17B681B685B68DAB27B6924
:10318C001A7008E07B681B685B68DBB203F07F0396
:10319C00DAB27B691A707B689B6A5A1C7B689A62EC
:1031AC007B68DB8D9BB2013B9BB27A681946D1855B
:1031BC00002B48D17B681B68DA687B681B6822F09F
:1031CC002002DA607B681B68DA687B681B6822F473
:1031DC008072DA607B681B685A697B681B6822F016
:1031EC0001025A617B68202283F83E207B681B6BAE
:1031FC00012B23D17B6800221A637B681B68DA6879
:10320C007B681B6822F01002DA607B681B681B6805
:10321C0003F01003102B0AD10023FB607B681B68A2
:10322C001B68FB607B681B685B68FB60FB687B68EA
:10323C009B8D19467868FFF779FE02E07868FCF7F9
:10324C007FFF002302E0002300E00223184618371A
:10325C00BD4680BD80B584B000AF78607B681B68CC
:10326C001B6923F440517B68DA687B681B680A434E
:10327C001A617B689A687B681B691A437B685B6977
:10328C001343BB607B681B68DB6823F4B05323F0EB
:10329C000C037A681268B9680B43D3607B681B68AF
:1032AC005B6923F440717B689A697B681B680A43ED
:1032BC005A617B681B682C4A934203D1FEF77CFC55
:1032CC00F86002E0FEF764FCF860FA6813469B00B5
:1032DC0013449A001A447B685B689B00B2FBF3F3BF
:1032EC00224AA2FB03235B091901FA6813469B00CF
:1032FC0013449A001A447B685B689B00B2FBF3F2A0
:10330C001A4BA3FB02035B09642000FB03F3D31AE3
:10331C001B013233154AA2FB03235B0903F0F003B4
:10332C001944FA6813469B0013449A001A447B68AC
:10333C005B689B00B2FBF3F20C4BA3FB02035B0933
:10334C00642000FB03F3D31A1B013233074AA2FBA0
:10335C0003235B0903F00F027B681B680A449A6025
:10336C0000BF1037BD4680BD003801401F85EB51B2
:10337C0070B500260C4D0D4C641BA410A64209D14F
:10338C0000F022F800260A4D0A4C641BA410A64239
:10339C0005D170BD55F8043B98470136EEE755F85A
:1033AC00043B98470136F2E7143400081434000843
:1033BC00143400081834000803460244934200D128
:1033CC00704703F8011BF9E7F8B500BFF8BC08BC5F
:1033DC009E467047F8B500BFF8BC08BC9E467047C7
:1033EC0002030405060708090A0B0C0D0E0F10103A
:1033FC000000000000000000010203040607080999
:08340C000000000001020304AE
:04341400310100087A
:043418000D0100089A
:0C341C000024F40010000000010000007B
:0400000508000C31B2
:00000001FF
